:1000000000308A0028280000233084008313000871
:10001000031918280330F800F701F70B0D28F80B27
:100020000C28E330F700F70B13280000800B0A2898
:100030008A110A126D280430A402031C27282430D8
:1000400084008313000803192728800B2528080043
:1000500003081F398300831603170908C039890074
:1000600003131F129F1200300317880083128701A9
:1000700088018901831303131F179F1783169F1786
:1000800083121F14831603170908C039890003134C
:100090001F129F120130031788000030F8008312EE
:1000A00003131F08C33978049F009F149F18562814
:1000B00083161E088312A1001E08A2000430F70058
:1000C000F70B60286328A208031D6A282108413C19
:1000D000031883280730A30004280230A300F93056
:1000E000A4001B20A30B6F2883160810831208148A
:1000F0000230A300F930A4001B20A30B7A2883163A
:0A0100000810831208105528630050
:04400E00E22CFF3F62
:00000001FF
;PIC16F887
;CRC=0B5A  CREATED="18-Dec-21 21:36"
